{
  "contractName": "RewardToken",
  "abi": [
    {
      "inputs": [],
      "stateMutability": "nonpayable",
      "type": "constructor"
    },
    {
      "anonymous": false,
      "inputs": [
        {
          "indexed": true,
          "internalType": "address",
          "name": "_approvalFrom",
          "type": "address"
        },
        {
          "indexed": true,
          "internalType": "address",
          "name": "_approvalTo",
          "type": "address"
        },
        {
          "indexed": false,
          "internalType": "uint256",
          "name": "_approvalAmount",
          "type": "uint256"
        }
      ],
      "name": "Approval",
      "type": "event"
    },
    {
      "anonymous": false,
      "inputs": [
        {
          "indexed": true,
          "internalType": "address",
          "name": "_transferFrom",
          "type": "address"
        },
        {
          "indexed": true,
          "internalType": "address",
          "name": "_transferTo",
          "type": "address"
        },
        {
          "indexed": false,
          "internalType": "uint256",
          "name": "_transferAmount",
          "type": "uint256"
        }
      ],
      "name": "Transfer",
      "type": "event"
    },
    {
      "inputs": [
        {
          "internalType": "address",
          "name": "",
          "type": "address"
        }
      ],
      "name": "_accountBalance",
      "outputs": [
        {
          "internalType": "uint256",
          "name": "",
          "type": "uint256"
        }
      ],
      "stateMutability": "view",
      "type": "function",
      "constant": true
    },
    {
      "inputs": [
        {
          "internalType": "address",
          "name": "",
          "type": "address"
        },
        {
          "internalType": "address",
          "name": "",
          "type": "address"
        }
      ],
      "name": "_allowance",
      "outputs": [
        {
          "internalType": "uint256",
          "name": "",
          "type": "uint256"
        }
      ],
      "stateMutability": "view",
      "type": "function",
      "constant": true
    },
    {
      "inputs": [],
      "name": "_name",
      "outputs": [
        {
          "internalType": "string",
          "name": "",
          "type": "string"
        }
      ],
      "stateMutability": "view",
      "type": "function",
      "constant": true
    },
    {
      "inputs": [],
      "name": "_symbol",
      "outputs": [
        {
          "internalType": "string",
          "name": "",
          "type": "string"
        }
      ],
      "stateMutability": "view",
      "type": "function",
      "constant": true
    },
    {
      "inputs": [
        {
          "internalType": "address",
          "name": "_approvalTo",
          "type": "address"
        },
        {
          "internalType": "uint256",
          "name": "_approvalAmount",
          "type": "uint256"
        }
      ],
      "name": "_approval",
      "outputs": [
        {
          "internalType": "bool",
          "name": "success",
          "type": "bool"
        }
      ],
      "stateMutability": "nonpayable",
      "type": "function"
    },
    {
      "inputs": [
        {
          "internalType": "address",
          "name": "_transferTo",
          "type": "address"
        },
        {
          "internalType": "uint256",
          "name": "_transferAmount",
          "type": "uint256"
        }
      ],
      "name": "_transfer",
      "outputs": [
        {
          "internalType": "bool",
          "name": "success",
          "type": "bool"
        }
      ],
      "stateMutability": "nonpayable",
      "type": "function"
    },
    {
      "inputs": [
        {
          "internalType": "address",
          "name": "_transferFrom",
          "type": "address"
        },
        {
          "internalType": "address",
          "name": "_transferTo",
          "type": "address"
        },
        {
          "internalType": "uint256",
          "name": "_transferAmount",
          "type": "uint256"
        }
      ],
      "name": "_thirdPartyTransfer",
      "outputs": [
        {
          "internalType": "bool",
          "name": "success",
          "type": "bool"
        }
      ],
      "stateMutability": "nonpayable",
      "type": "function"
    }
  ],
  "bytecode": "0x60806040526040518060400160405280600c81526020017f52657761726420546f6b656e00000000000000000000000000000000000000008152506000908051906020019061004f92919061011e565b506040518060400160405280600381526020017f52574400000000000000000000000000000000000000000000000000000000008152506001908051906020019061009b92919061011e565b5069d3c21bcecceda10000006002556012600360006101000a81548160ff021916908360ff1602179055503480156100d257600080fd5b50600254600460003373ffffffffffffffffffffffffffffffffffffffff1673ffffffffffffffffffffffffffffffffffffffff168152602001908152602001600020819055506101c9565b828054600181600116156101000203166002900490600052602060002090601f016020900481019282610154576000855561019b565b82601f1061016d57805160ff191683800117855561019b565b8280016001018555821561019b579182015b8281111561019a57825182559160200191906001019061017f565b5b5090506101a891906101ac565b5090565b5b808211156101c55760008160009055506001016101ad565b5090565b610c1d806101d86000396000f3fe608060405234801561001057600080fd5b506004361061007d5760003560e01c8063b09f12661161005b578063b09f1266146101a2578063d28d885214610225578063dd336c12146102a8578063f2de9564146103205761007d565b80632713bd30146100825780634847a79c146100da5780634a3dc2d81461013e575b600080fd5b6100c46004803603602081101561009857600080fd5b81019080803573ffffffffffffffffffffffffffffffffffffffff1690602001909291905050506103a4565b6040518082815260200191505060405180910390f35b610126600480360360408110156100f057600080fd5b81019080803573ffffffffffffffffffffffffffffffffffffffff169060200190929190803590602001909291905050506103bc565b60405180821515815260200191505060405180910390f35b61018a6004803603604081101561015457600080fd5b81019080803573ffffffffffffffffffffffffffffffffffffffff1690602001909291908035906020019092919050505061057c565b60405180821515815260200191505060405180910390f35b6101aa610723565b6040518080602001828103825283818151815260200191508051906020019080838360005b838110156101ea5780820151818401526020810190506101cf565b50505050905090810190601f1680156102175780820380516001836020036101000a031916815260200191505b509250505060405180910390f35b61022d6107c1565b6040518080602001828103825283818151815260200191508051906020019080838360005b8381101561026d578082015181840152602081019050610252565b50505050905090810190601f16801561029a5780820380516001836020036101000a031916815260200191505b509250505060405180910390f35b61030a600480360360408110156102be57600080fd5b81019080803573ffffffffffffffffffffffffffffffffffffffff169060200190929190803573ffffffffffffffffffffffffffffffffffffffff16906020019092919050505061085f565b6040518082815260200191505060405180910390f35b61038c6004803603606081101561033657600080fd5b81019080803573ffffffffffffffffffffffffffffffffffffffff169060200190929190803573ffffffffffffffffffffffffffffffffffffffff16906020019092919080359060200190929190505050610884565b60405180821515815260200191505060405180910390f35b60046020528060005260406000206000915090505481565b600081600460003373ffffffffffffffffffffffffffffffffffffffff1673ffffffffffffffffffffffffffffffffffffffff168152602001908152602001600020541015610473576040517f08c379a000000000000000000000000000000000000000000000000000000000815260040180806020018281038252601e8152602001807f496e73756666696369656e7420746f6b656e20696e206163636f756e7421000081525060200191505060405180910390fd5b81600460003373ffffffffffffffffffffffffffffffffffffffff1673ffffffffffffffffffffffffffffffffffffffff1681526020019081526020016000206000828254039250508190555081600460008573ffffffffffffffffffffffffffffffffffffffff1673ffffffffffffffffffffffffffffffffffffffff168152602001908152602001600020600082825401925050819055508273ffffffffffffffffffffffffffffffffffffffff163373ffffffffffffffffffffffffffffffffffffffff167fddf252ad1be2c89b69c2b068fc378daa952ba7f163c4a11628f55a4df523b3ef846040518082815260200191505060405180910390a36001905092915050565b600081600460003373ffffffffffffffffffffffffffffffffffffffff1673ffffffffffffffffffffffffffffffffffffffff168152602001908152602001600020541015610633576040517f08c379a000000000000000000000000000000000000000000000000000000000815260040180806020018281038252601e8152602001807f496e73756666696369656e7420746f6b656e20696e206163636f756e7421000081525060200191505060405180910390fd5b81600560003373ffffffffffffffffffffffffffffffffffffffff1673ffffffffffffffffffffffffffffffffffffffff16815260200190815260200160002060008573ffffffffffffffffffffffffffffffffffffffff1673ffffffffffffffffffffffffffffffffffffffff168152602001908152602001600020819055508273ffffffffffffffffffffffffffffffffffffffff163373ffffffffffffffffffffffffffffffffffffffff167f8c5be1e5ebec7d5bd14f71427d1e84f3dd0314c0f7b2291e5b200ac8c7c3b925846040518082815260200191505060405180910390a36001905092915050565b60018054600181600116156101000203166002900480601f0160208091040260200160405190810160405280929190818152602001828054600181600116156101000203166002900480156107b95780601f1061078e576101008083540402835291602001916107b9565b820191906000526020600020905b81548152906001019060200180831161079c57829003601f168201915b505050505081565b60008054600181600116156101000203166002900480601f0160208091040260200160405190810160405280929190818152602001828054600181600116156101000203166002900480156108575780601f1061082c57610100808354040283529160200191610857565b820191906000526020600020905b81548152906001019060200180831161083a57829003601f168201915b505050505081565b6005602052816000526040600020602052806000526040600020600091509150505481565b600081600460008673ffffffffffffffffffffffffffffffffffffffff1673ffffffffffffffffffffffffffffffffffffffff16815260200190815260200160002054101561093b576040517f08c379a000000000000000000000000000000000000000000000000000000000815260040180806020018281038252601e8152602001807f496e73756666696369656e7420746f6b656e20696e206163636f756e7421000081525060200191505060405180910390fd5b81600560008673ffffffffffffffffffffffffffffffffffffffff1673ffffffffffffffffffffffffffffffffffffffff16815260200190815260200160002060008573ffffffffffffffffffffffffffffffffffffffff1673ffffffffffffffffffffffffffffffffffffffff168152602001908152602001600020541015610a10576040517f08c379a0000000000000000000000000000000000000000000000000000000008152600401808060200182810382526043815260200180610ba56043913960600191505060405180910390fd5b81600560008673ffffffffffffffffffffffffffffffffffffffff1673ffffffffffffffffffffffffffffffffffffffff16815260200190815260200160002060008573ffffffffffffffffffffffffffffffffffffffff1673ffffffffffffffffffffffffffffffffffffffff1681526020019081526020016000206000828254039250508190555081600460008673ffffffffffffffffffffffffffffffffffffffff1673ffffffffffffffffffffffffffffffffffffffff1681526020019081526020016000206000828254039250508190555081600460008573ffffffffffffffffffffffffffffffffffffffff1673ffffffffffffffffffffffffffffffffffffffff168152602001908152602001600020600082825401925050819055508273ffffffffffffffffffffffffffffffffffffffff168473ffffffffffffffffffffffffffffffffffffffff167fddf252ad1be2c89b69c2b068fc378daa952ba7f163c4a11628f55a4df523b3ef846040518082815260200191505060405180910390a360009050939250505056fe416d6f756e7420656e746572656420646f6573206e6f74206d61746368207769746820417070726f76616c20616c6c6f77616e6365206163636f756e7420746f6b656ea2646970667358221220b37d49100ec8856da85e6aa1546b9c7d96a1f84f00591afc6e35f1bae99cbfcb64736f6c63430007060033",
  "immutableReferences": {},
  "source": "// SPDX-License-Identifier: MIT\r\npragma solidity >=0.5.0 <=0.9.0;\r\n\r\ncontract RewardToken {\r\n    string public _name = 'Reward Token';                                                // Name of the Token\r\n    string public _symbol = 'RWD';                                                       // Symbol of the token\r\n    uint256 _totalSupply = 1000000000000000000000000;                                    // Total supply of the token in Wei\r\n    uint8 _decimals = 18;                                                                // Decimal digits for Wei\r\n\r\n    mapping(address => uint256) public _accountBalance;                                  // Store information of user account holder's balance\r\n    mapping(address => mapping(address => uint256)) public _allowance;                   // Store information of allowance approval e.g (person X approves to let person Y take Z amount of tokens)\r\n\r\n    // Event log for transferring tokens\r\n    event Transfer(\r\n        address indexed _transferFrom, \r\n        address indexed _transferTo, \r\n        uint256 _transferAmount\r\n    );\r\n    \r\n    // Event logs for approval token for transfer\r\n    event Approval(                                                                                                                                        \r\n        address indexed _approvalFrom,\r\n        address indexed _approvalTo, \r\n        uint256 _approvalAmount\r\n    ); \r\n\r\n    // Initialize an instance of the Tether contract\r\n    constructor() {\r\n        _accountBalance[msg.sender] = _totalSupply;                                      // Gives total supply of token to owner as the contract is initiated\r\n    }\r\n\r\n    // Function for approval of token transfer\r\n    function _approval(address _approvalTo, uint256 _approvalAmount) public returns (bool success) {\r\n\r\n       \r\n        require(                                                                          // The token amount in user's account must be greater or equal to approved token amount to initial approval \r\n            _accountBalance[msg.sender] >= _approvalAmount,\r\n            'Insufficient token in account!'\r\n        );\r\n        \r\n        _allowance[msg.sender][_approvalTo] = _approvalAmount;                           // Assigns the approved token amount to respected approved user account holders\r\n        emit Approval(msg.sender, _approvalTo, _approvalAmount);                         // Emit the event log and assign respected values to the variables\r\n\r\n        return true;\r\n    }\r\n\r\n    // Function for standard transfer of tokens\r\n    function _transfer(address _transferTo, uint256 _transferAmount) public returns (bool success) {\r\n\r\n        \r\n        require(                                                                         // The token amount in user's account must be greater than or equal to the token amount entered for transfer\r\n            _accountBalance[msg.sender] >= _transferAmount,\r\n            'Insufficient token in account!'\r\n        );\r\n\r\n        _accountBalance[msg.sender] -= _transferAmount;                                  // Substracts the amount of token entered for transfer from the user's account \r\n        _accountBalance[_transferTo] += _transferAmount;                                 // Transfer the amount of token to the reciever's account\r\n        emit Transfer(msg.sender, _transferTo, _transferAmount);                         // Emit the event log and assign respected values to the variables\r\n\r\n        return true;\r\n    }\r\n\r\n    // Function for third party transfer\r\n    function _thirdPartyTransfer(address _transferFrom, address _transferTo, uint256 _transferAmount) public returns (bool success) {\r\n\r\n        require(                                                                         // The token amount in user's account must be greater than or equal to the token amount entered for transfer\r\n            _accountBalance[_transferFrom] >= _transferAmount,\r\n            'Insufficient token in account!'\r\n        );\r\n\r\n        \r\n        require(                                                                         // The token amount in the approved allowance account must be greater than or equal to the token amount entered for transfer\r\n            _allowance[_transferFrom][_transferTo] >= _transferAmount,\r\n            'Amount entered does not match with Approval allowance account token'\r\n        );\r\n\r\n        _allowance[_transferFrom][_transferTo] -= _transferAmount;                       // Substracts the token amount of the approved allowance account by the token amount entered\r\n        _accountBalance[_transferFrom] -= _transferAmount;                               // Substracts the token amount of the user's account by the token amount entered\r\n        _accountBalance[_transferTo] += _transferAmount;                                 // Transfer the token amount to the reciever's account\r\n        emit Transfer(_transferFrom, _transferTo, _transferAmount);                      // Emit the event log and assign respected values to the variables\r\n        \r\n        return false;\r\n    }\r\n\r\n\r\n}",
  "sourcePath": "C:\\Users\\LammyRu\\Projects\\defi-staking-app-starter\\defi-staking-app-starter\\src\\contracts\\RewardToken.sol",
  "compiler": {
    "name": "solc",
    "version": "0.7.6+commit.7338295f.Emscripten.clang"
  },
  "schemaVersion": "3.4.5",
  "updatedAt": "2022-02-23T17:41:20.821Z",
  "networkType": "ethereum",
  "devdoc": {
    "kind": "dev",
    "methods": {},
    "version": 1
  },
  "userdoc": {
    "kind": "user",
    "methods": {},
    "version": 1
  }
}